{
  "contractName": "MembershipFeeStaking",
  "abi": [
    {
      "anonymous": false,
      "inputs": [
        {
          "indexed": true,
          "internalType": "address",
          "name": "sender",
          "type": "address"
        },
        {
          "indexed": false,
          "internalType": "uint256",
          "name": "_amount",
          "type": "uint256"
        },
        {
          "indexed": false,
          "internalType": "uint256",
          "name": "_period",
          "type": "uint256"
        }
      ],
      "name": "Lock",
      "type": "event"
    },
    {
      "anonymous": false,
      "inputs": [
        {
          "indexed": true,
          "internalType": "address",
          "name": "_beneficiary",
          "type": "address"
        },
        {
          "indexed": false,
          "internalType": "uint256",
          "name": "_amount",
          "type": "uint256"
        }
      ],
      "name": "Release",
      "type": "event"
    },
    {
      "constant": true,
      "inputs": [],
      "name": "SGTtoken",
      "outputs": [
        {
          "internalType": "contract IERC20",
          "name": "",
          "type": "address"
        }
      ],
      "payable": false,
      "stateMutability": "view",
      "type": "function"
    },
    {
      "constant": true,
      "inputs": [
        {
          "internalType": "address",
          "name": "",
          "type": "address"
        }
      ],
      "name": "lockers",
      "outputs": [
        {
          "internalType": "uint256",
          "name": "amount",
          "type": "uint256"
        },
        {
          "internalType": "uint256",
          "name": "releaseTime",
          "type": "uint256"
        }
      ],
      "payable": false,
      "stateMutability": "view",
      "type": "function"
    },
    {
      "constant": true,
      "inputs": [],
      "name": "minLockingPeriod",
      "outputs": [
        {
          "internalType": "uint256",
          "name": "",
          "type": "uint256"
        }
      ],
      "payable": false,
      "stateMutability": "view",
      "type": "function"
    },
    {
      "constant": true,
      "inputs": [],
      "name": "totalLocked",
      "outputs": [
        {
          "internalType": "uint256",
          "name": "",
          "type": "uint256"
        }
      ],
      "payable": false,
      "stateMutability": "view",
      "type": "function"
    },
    {
      "constant": false,
      "inputs": [
        {
          "internalType": "uint256",
          "name": "_amount",
          "type": "uint256"
        },
        {
          "internalType": "uint256",
          "name": "_period",
          "type": "uint256"
        }
      ],
      "name": "lock",
      "outputs": [],
      "payable": false,
      "stateMutability": "nonpayable",
      "type": "function"
    },
    {
      "constant": false,
      "inputs": [
        {
          "internalType": "contract IERC20",
          "name": "_SGTtoken",
          "type": "address"
        },
        {
          "internalType": "uint256",
          "name": "_minLockingPeriod",
          "type": "uint256"
        }
      ],
      "name": "initialize",
      "outputs": [],
      "payable": false,
      "stateMutability": "nonpayable",
      "type": "function"
    }
  ],
  "bytecode": "0x608060405234801561001057600080fd5b506105a5806100206000396000f3fe608060405234801561001057600080fd5b50600436106100725760003560e01c8063949c303811610050578063949c3038146100f5578063cd6dc687146100fd578063e3dacba51461012957610072565b80631338736f146100775780632c8e7a211461009c57806356891412146100db575b600080fd5b61009a6004803603604081101561008d57600080fd5b508035906020013561014d565b005b6100c2600480360360208110156100b257600080fd5b50356001600160a01b0316610382565b6040805192835260208301919091528051918290030190f35b6100e361039b565b60408051918252519081900360200190f35b6100e36103a1565b61009a6004803603604081101561011357600080fd5b506001600160a01b0381351690602001356103a7565b61013161049d565b604080516001600160a01b039092168252519081900360200190f35b60008054604080517f23b872dd0000000000000000000000000000000000000000000000000000000081523360048201523060248201526044810186905290516001600160a01b03909216926323b872dd926064808401936020939083900390910190829087803b1580156101c157600080fd5b505af11580156101d5573d6000803e3d6000fd5b505050506040513d60208110156101eb57600080fd5b50516102285760405162461bcd60e51b815260040180806020018281038252603781526020018061050e6037913960400191505060405180910390fd5b6000821161027d576040805162461bcd60e51b815260206004820152601c60248201527f6c6f636b696e6720616d6f756e742073686f756c64206265203e203000000000604482015290519081900360640190fd5b6003548110156102be5760405162461bcd60e51b815260040180806020018281038252602c815260200180610545602c913960400191505060405180910390fd5b3360009081526001602052604090205415610312573360009081526001602081905260409091208054840181550154428201111561030d57336000908152600160208190526040909120018190555b61032e565b3360009081526001602081905260409091208381554283019101555b600254610341908363ffffffff6104ac16565b6002556040805183815260208101839052815133927f49eaf4942f1237055eb4cfa5f31c9dfe50d5b4ade01e021f7de8be2fbbde557b928290030190a25050565b6001602081905260009182526040909120805491015482565b60025481565b60035481565b6000546001600160a01b031615610405576040805162461bcd60e51b815260206004820152601b60248201527f63616e2062652063616c6c6564206f6e6c79206f6e652074696d650000000000604482015290519081900360640190fd5b6001600160a01b038216610460576040805162461bcd60e51b815260206004820152601560248201527f6176617461722063616e6e6f74206265207a65726f0000000000000000000000604482015290519081900360640190fd5b600355600080547fffffffffffffffffffffffff0000000000000000000000000000000000000000166001600160a01b0392909216919091179055565b6000546001600160a01b031681565b600082820183811015610506576040805162461bcd60e51b815260206004820152601b60248201527f536166654d6174683a206164646974696f6e206f766572666c6f770000000000604482015290519081900360640190fd5b939250505056fe546f6b656e207374616b696e673a2043616e6074207472616e7366657220746f6b656e7320746f207374616b696e6720616464726573736c6f636b696e6720706572696f642073686f756c64206265203e3d206d696e4c6f636b696e67506572696f64a265627a7a72315820306adc4ccbf49b17f510ddc61deff22dc235c90c7f9e4e2664b8de2de1cdab7964736f6c634300050d0032",
  "source": "pragma solidity 0.5.13;\n\nimport \"openzeppelin-solidity/contracts/token/ERC20/IERC20.sol\";\nimport \"openzeppelin-solidity/contracts/math/SafeMath.sol\";\n\n/**\n * @title A locker contract\n */\n\ncontract MembershipFeeStaking {\n    using SafeMath for uint256;\n\n    event Release(address indexed _beneficiary, uint256 _amount);\n    event Lock(address indexed sender, uint256 _amount, uint256 _period);\n\n    struct Locker {\n        uint256 amount;\n        uint256 releaseTime;\n    }\n\n    IERC20 public SGTtoken;\n\n    // A mapping from lockers addresses their lock balances.\n    mapping(address => Locker) public lockers;\n\n\n    uint256 public totalLocked;\n    uint256 public minLockingPeriod;\n\n    /**\n     * @dev release function\n     * @param _beneficiary the beneficiary for the release\n     * @return bool\n     */\n    function release(address _beneficiary) internal returns(uint256 amount) {\n        Locker storage locker = lockers[_beneficiary];\n        require(locker.amount > 0, \"amount should be > 0\");\n        amount = locker.amount;\n        locker.amount = 0;\n        // solhint-disable-next-line not-rely-on-time\n        require(now > locker.releaseTime, \"check the lock period pass\");\n\n        emit Release(_beneficiary, amount);\n    }\n\n    /**\n     * @dev lock function\n     * @param _amount the amount to lock\n     * @param _period the locking period\n     * @return bool\n     */\n    function lock(\n        uint256 _amount,\n        uint256 _period\n        )\n        public\n        {\n\n        require(\n            SGTtoken.transferFrom(msg.sender, address(this), _amount),\n            \"Token staking: Can`t transfer tokens to staking address\"\n        );\n\n        require(_amount > 0, \"locking amount should be > 0\");\n        require(_period >= minLockingPeriod, \"locking period should be >= minLockingPeriod\");\n\n        if (lockers[msg.sender].amount > 0) {\n            lockers[msg.sender].amount += _amount;\n\n            // if new period is > than previous set it, else left previous\n            if (now + _period > lockers[msg.sender].releaseTime) {\n                lockers[msg.sender].releaseTime = _period;\n            }\n\n        } else {\n            Locker storage locker = lockers[msg.sender];\n            locker.amount = _amount;\n\n            // solhint-disable-next-line not-rely-on-time\n            locker.releaseTime = now + _period;\n        }\n        \n\n        totalLocked = totalLocked.add(_amount); \n        emit Lock(msg.sender, _amount, _period);\n    }\n\n    /**\n     * @dev initialize\n     * @param _SGTtoken the SGT token addres to stake on\n     * @param _minLockingPeriod minimum locking period allowed.\n     */\n    function initialize(\n        IERC20 _SGTtoken,\n        uint256 _minLockingPeriod\n    )\n    public\n    {\n        require(SGTtoken == IERC20(0), \"can be called only one time\");\n        require(_SGTtoken != IERC20(0), \"avatar cannot be zero\");\n\n        minLockingPeriod = _minLockingPeriod;\n        SGTtoken = _SGTtoken;\n    }\n\n}\n\n// pragma solidity ^0.5.0;\n\n// import \"openzeppelin-solidity/contracts/token/ERC20/IERC20.sol\";\n// import \"openzeppelin-solidity/contracts/math/SafeMath.sol\";\n\n\n// contract MembershipFeeStaking {\n//     using SafeMath for uint256;\n//     IERC20 public token;\n//     mapping(address => uint256) public balances;\n\n//     constructor(IERC20 _token) public {\n//         token = _token;\n//     }\n\n//     function stake(uint256 _amount) public returns (bool) {\n//         require(\n//             token.transferFrom(msg.sender, address(this), _amount),\n//             \"Token staking: Can`t transfer tokens to staking address\"\n//         );\n//         balances[msg.sender] = balances[msg.sender].add(_amount);\n//         return true;\n//     }\n\n//     function balanceOf(address _account) public view returns (uint256) {\n//         return balances[_account];\n//     }\n// }\n",
  "sourcePath": "/home/obaranni/blaize/memfee/contracts/singular/MembershipFeeStaking.sol",
  "compiler": {
    "name": "solc",
    "version": "0.5.13+commit.5b0b510c.Emscripten.clang"
  },
  "schemaVersion": "3.1.0",
  "updatedAt": "2020-05-12T13:54:43.572Z",
  "devdoc": {
    "methods": {
      "initialize(address,uint256)": {
        "details": "initialize",
        "params": {
          "_SGTtoken": "the SGT token addres to stake on",
          "_minLockingPeriod": "minimum locking period allowed."
        }
      },
      "lock(uint256,uint256)": {
        "details": "lock function",
        "params": {
          "_amount": "the amount to lock",
          "_period": "the locking period"
        },
        "return": "bool"
      }
    },
    "title": "A locker contract"
  },
  "userdoc": {
    "methods": {}
  }
}